{
    "contractName": "MarketPlace",
    "abi": [
        {
            "inputs": [],
            "stateMutability": "nonpayable",
            "type": "constructor"
        },
        {
            "anonymous": false,
            "inputs": [
                {
                    "indexed": false,
                    "internalType": "string",
                    "name": "nftType",
                    "type": "string"
                },
                {
                    "indexed": true,
                    "internalType": "address",
                    "name": "nftContract",
                    "type": "address"
                },
                {
                    "indexed": false,
                    "internalType": "address payable",
                    "name": "seller",
                    "type": "address"
                },
                {
                    "indexed": false,
                    "internalType": "address payable",
                    "name": "owner",
                    "type": "address"
                },
                {
                    "indexed": false,
                    "internalType": "bool",
                    "name": "sold",
                    "type": "bool"
                },
                {
                    "indexed": true,
                    "internalType": "uint128",
                    "name": "tokenId",
                    "type": "uint128"
                },
                {
                    "indexed": false,
                    "internalType": "uint256",
                    "name": "createdAt",
                    "type": "uint256"
                },
                {
                    "indexed": false,
                    "internalType": "uint256",
                    "name": "price",
                    "type": "uint256"
                },
                {
                    "indexed": true,
                    "internalType": "uint256",
                    "name": "itemId",
                    "type": "uint256"
                }
            ],
            "name": "EachMarketItemMinted",
            "type": "event"
        },
        {
            "inputs": [
                {
                    "internalType": "uint256",
                    "name": "",
                    "type": "uint256"
                }
            ],
            "name": "marketPlaceItems",
            "outputs": [
                {
                    "internalType": "string",
                    "name": "nftType",
                    "type": "string"
                },
                {
                    "internalType": "address",
                    "name": "nftContract",
                    "type": "address"
                },
                {
                    "internalType": "address payable",
                    "name": "seller",
                    "type": "address"
                },
                {
                    "internalType": "address payable",
                    "name": "owner",
                    "type": "address"
                },
                {
                    "internalType": "bool",
                    "name": "sold",
                    "type": "bool"
                },
                {
                    "internalType": "uint128",
                    "name": "tokenId",
                    "type": "uint128"
                },
                {
                    "internalType": "uint256",
                    "name": "createdAt",
                    "type": "uint256"
                },
                {
                    "internalType": "uint256",
                    "name": "price",
                    "type": "uint256"
                },
                {
                    "internalType": "uint256",
                    "name": "itemId",
                    "type": "uint256"
                }
            ],
            "stateMutability": "view",
            "type": "function"
        },
        {
            "inputs": [
                {
                    "internalType": "uint256",
                    "name": "",
                    "type": "uint256"
                }
            ],
            "name": "nftTypes",
            "outputs": [
                {
                    "internalType": "string",
                    "name": "",
                    "type": "string"
                }
            ],
            "stateMutability": "view",
            "type": "function"
        },
        {
            "inputs": [
                {
                    "internalType": "address",
                    "name": "_nftContract",
                    "type": "address"
                },
                {
                    "internalType": "uint128",
                    "name": "_tokenId",
                    "type": "uint128"
                },
                {
                    "internalType": "uint256",
                    "name": "_price",
                    "type": "uint256"
                },
                {
                    "internalType": "uint8",
                    "name": "_nftType",
                    "type": "uint8"
                }
            ],
            "name": "addMarketItem",
            "outputs": [],
            "stateMutability": "payable",
            "type": "function"
        },
        {
            "inputs": [
                {
                    "internalType": "address",
                    "name": "_nftContract",
                    "type": "address"
                },
                {
                    "internalType": "uint256",
                    "name": "_itemId",
                    "type": "uint256"
                }
            ],
            "name": "sellMarketItem",
            "outputs": [],
            "stateMutability": "payable",
            "type": "function"
        },
        {
            "inputs": [],
            "name": "contractBalance",
            "outputs": [
                {
                    "internalType": "uint256",
                    "name": "",
                    "type": "uint256"
                }
            ],
            "stateMutability": "view",
            "type": "function"
        },
        {
            "inputs": [],
            "name": "explore",
            "outputs": [
                {
                    "components": [
                        {
                            "internalType": "string",
                            "name": "nftType",
                            "type": "string"
                        },
                        {
                            "internalType": "address",
                            "name": "nftContract",
                            "type": "address"
                        },
                        {
                            "internalType": "address payable",
                            "name": "seller",
                            "type": "address"
                        },
                        {
                            "internalType": "address payable",
                            "name": "owner",
                            "type": "address"
                        },
                        {
                            "internalType": "bool",
                            "name": "sold",
                            "type": "bool"
                        },
                        {
                            "internalType": "uint128",
                            "name": "tokenId",
                            "type": "uint128"
                        },
                        {
                            "internalType": "uint256",
                            "name": "createdAt",
                            "type": "uint256"
                        },
                        {
                            "internalType": "uint256",
                            "name": "price",
                            "type": "uint256"
                        },
                        {
                            "internalType": "uint256",
                            "name": "itemId",
                            "type": "uint256"
                        }
                    ],
                    "internalType": "struct MarketPlace.EachMarketItem[]",
                    "name": "",
                    "type": "tuple[]"
                }
            ],
            "stateMutability": "view",
            "type": "function"
        },
        {
            "inputs": [
                {
                    "internalType": "uint8",
                    "name": "_nftType",
                    "type": "uint8"
                }
            ],
            "name": "exploreType",
            "outputs": [
                {
                    "components": [
                        {
                            "internalType": "string",
                            "name": "nftType",
                            "type": "string"
                        },
                        {
                            "internalType": "address",
                            "name": "nftContract",
                            "type": "address"
                        },
                        {
                            "internalType": "address payable",
                            "name": "seller",
                            "type": "address"
                        },
                        {
                            "internalType": "address payable",
                            "name": "owner",
                            "type": "address"
                        },
                        {
                            "internalType": "bool",
                            "name": "sold",
                            "type": "bool"
                        },
                        {
                            "internalType": "uint128",
                            "name": "tokenId",
                            "type": "uint128"
                        },
                        {
                            "internalType": "uint256",
                            "name": "createdAt",
                            "type": "uint256"
                        },
                        {
                            "internalType": "uint256",
                            "name": "price",
                            "type": "uint256"
                        },
                        {
                            "internalType": "uint256",
                            "name": "itemId",
                            "type": "uint256"
                        }
                    ],
                    "internalType": "struct MarketPlace.EachMarketItem[]",
                    "name": "",
                    "type": "tuple[]"
                }
            ],
            "stateMutability": "view",
            "type": "function"
        },
        {
            "inputs": [],
            "name": "mySellingNFTS",
            "outputs": [
                {
                    "components": [
                        {
                            "internalType": "string",
                            "name": "nftType",
                            "type": "string"
                        },
                        {
                            "internalType": "address",
                            "name": "nftContract",
                            "type": "address"
                        },
                        {
                            "internalType": "address payable",
                            "name": "seller",
                            "type": "address"
                        },
                        {
                            "internalType": "address payable",
                            "name": "owner",
                            "type": "address"
                        },
                        {
                            "internalType": "bool",
                            "name": "sold",
                            "type": "bool"
                        },
                        {
                            "internalType": "uint128",
                            "name": "tokenId",
                            "type": "uint128"
                        },
                        {
                            "internalType": "uint256",
                            "name": "createdAt",
                            "type": "uint256"
                        },
                        {
                            "internalType": "uint256",
                            "name": "price",
                            "type": "uint256"
                        },
                        {
                            "internalType": "uint256",
                            "name": "itemId",
                            "type": "uint256"
                        }
                    ],
                    "internalType": "struct MarketPlace.EachMarketItem[]",
                    "name": "",
                    "type": "tuple[]"
                }
            ],
            "stateMutability": "view",
            "type": "function"
        },
        {
            "inputs": [
                {
                    "internalType": "string",
                    "name": "_newType",
                    "type": "string"
                }
            ],
            "name": "addNFTType",
            "outputs": [],
            "stateMutability": "nonpayable",
            "type": "function"
        },
        {
            "inputs": [
                {
                    "internalType": "uint256",
                    "name": "_newListinPrice",
                    "type": "uint256"
                }
            ],
            "name": "updateListingPrice",
            "outputs": [],
            "stateMutability": "nonpayable",
            "type": "function"
        },
        {
            "inputs": [],
            "name": "getNFTsCount",
            "outputs": [
                {
                    "internalType": "uint256",
                    "name": "",
                    "type": "uint256"
                }
            ],
            "stateMutability": "view",
            "type": "function"
        },
        {
            "inputs": [],
            "name": "getSoldNFTsCount",
            "outputs": [
                {
                    "internalType": "uint256",
                    "name": "",
                    "type": "uint256"
                }
            ],
            "stateMutability": "view",
            "type": "function"
        }
    ],
    "bytecode": "0x60806040523480156200001157600080fd5b50600160008190555033600360006101000a81548173ffffffffffffffffffffffffffffffffffffffff021916908373ffffffffffffffffffffffffffffffffffffffff160217905550669fdf42f6e4800060048190555060405180606001604052806040518060400160405280600581526020017f6d7573696300000000000000000000000000000000000000000000000000000081525081526020016040518060400160405280600581526020017f7061696e7400000000000000000000000000000000000000000000000000000081525081526020016040518060400160405280600581526020017f73706f72740000000000000000000000000000000000000000000000000000008152508152506005906003620001359291906200013c565b506200058a565b82805482825590600052602060002090810192821562000189579160200282015b8281111562000188578251829081620001779190620004a3565b50916020019190600101906200015d565b5b5090506200019891906200019c565b5090565b5b80821115620001c05760008181620001b69190620001c4565b506001016200019d565b5090565b508054620001d29062000292565b6000825580601f10620001e6575062000207565b601f0160209004906000526020600020908101906200020691906200020a565b5b50565b5b80821115620002255760008160009055506001016200020b565b5090565b600081519050919050565b7f4e487b7100000000000000000000000000000000000000000000000000000000600052604160045260246000fd5b7f4e487b7100000000000000000000000000000000000000000000000000000000600052602260045260246000fd5b60006002820490506001821680620002ab57607f821691505b602082108103620002c157620002c062000263565b5b50919050565b60008190508160005260206000209050919050565b60006020601f8301049050919050565b600082821b905092915050565b6000600883026200032b7fffffffffffffffffffffffffffffffffffffffffffffffffffffffffffffffff82620002ec565b620003378683620002ec565b95508019841693508086168417925050509392505050565b6000819050919050565b6000819050919050565b6000620003846200037e62000378846200034f565b62000359565b6200034f565b9050919050565b6000819050919050565b620003a08362000363565b620003b8620003af826200038b565b848454620002f9565b825550505050565b600090565b620003cf620003c0565b620003dc81848462000395565b505050565b5b818110156200040457620003f8600082620003c5565b600181019050620003e2565b5050565b601f82111562000453576200041d81620002c7565b6200042884620002dc565b8101602085101562000438578190505b620004506200044785620002dc565b830182620003e1565b50505b505050565b600082821c905092915050565b6000620004786000198460080262000458565b1980831691505092915050565b600062000493838362000465565b9150826002028217905092915050565b620004ae8262000229565b67ffffffffffffffff811115620004ca57620004c962000234565b5b620004d6825462000292565b620004e382828562000408565b600060209050601f8311600181146200051b576000841562000506578287015190505b62000512858262000485565b86555062000582565b601f1984166200052b86620002c7565b60005b8281101562000555578489015182556001820191506020850194506020810190506200052e565b8683101562000575578489015162000571601f89168262000465565b8355505b6001600288020188555050505b505050505050565b6133c7806200059a6000396000f3fe6080604052600436106100a75760003560e01c80638d955328116100645780638d955328146101ec578063ae677aa314610217578063b0916feb14610240578063d4011cae1461025c578063d524179a14610287578063f2f62da5146102a3576100a7565b80630f6bd9df146100ac578063345cbc48146100e95780636c1ff3871461011457806379b2ab23146101595780638ac8353a146101965780638b7afe2e146101c1575b600080fd5b3480156100b857600080fd5b506100d360048036038101906100ce919061216e565b6102cc565b6040516100e0919061247c565b60405180910390f35b3480156100f557600080fd5b506100fe610ac6565b60405161010b919061247c565b60405180910390f35b34801561012057600080fd5b5061013b600480360381019061013691906124ca565b610e63565b6040516101509998979695949392919061258c565b60405180910390f35b34801561016557600080fd5b50610180600480360381019061017b91906124ca565b610fc2565b60405161018d9190612620565b60405180910390f35b3480156101a257600080fd5b506101ab61106e565b6040516101b8919061247c565b60405180910390f35b3480156101cd57600080fd5b506101d6611525565b6040516101e39190612642565b60405180910390f35b3480156101f857600080fd5b5061020161152d565b60405161020e9190612642565b60405180910390f35b34801561022357600080fd5b5061023e600480360381019061023991906124ca565b6115ce565b005b61025a60048036038101906102559190612689565b61167b565b005b34801561026857600080fd5b50610271611a3b565b60405161027e9190612642565b60405180910390f35b6102a1600480360381019061029c91906126f5565b611adc565b005b3480156102af57600080fd5b506102ca60048036038101906102c591906127c1565b611f93565b005b606060006102da6001612065565b90506000805b8281101561056857600073ffffffffffffffffffffffffffffffffffffffff1660066000600184610311919061283d565b815260200190815260200160002060030160009054906101000a900473ffffffffffffffffffffffffffffffffffffffff1673ffffffffffffffffffffffffffffffffffffffff160361055557600060058660ff168154811061037757610376612893565b5b90600052602060002001805461038c906128f1565b80601f01602080910402602001604051908101604052809291908181526020018280546103b8906128f1565b80156104055780601f106103da57610100808354040283529160200191610405565b820191906000526020600020905b8154815290600101906020018083116103e857829003601f168201915b5050505050905060006006600060018561041f919061283d565b8152602001908152602001600020600001805461043b906128f1565b80601f0160208091040260200160405190810160405280929190818152602001828054610467906128f1565b80156104b45780601f10610489576101008083540402835291602001916104b4565b820191906000526020600020905b81548152906001019060200180831161049757829003601f168201915b505050505073__LibExample____________________________63bed34bba9091846040518363ffffffff1660e01b81526004016104f392919061296c565b602060405180830381865af4158015610510573d6000803e3d6000fd5b505050506040513d601f19601f8201168201806040525081019061053491906129cf565b905060011515811515036105525760018461054f919061283d565b93505b50505b8080610560906129fc565b9150506102e0565b506000808267ffffffffffffffff81111561058657610585612a44565b5b6040519080825280602002602001820160405280156105bf57816020015b6105ac612089565b8152602001906001900390816105a45790505b50905060005b84811015610ab957600073ffffffffffffffffffffffffffffffffffffffff16600660006001846105f6919061283d565b815260200190815260200160002060030160009054906101000a900473ffffffffffffffffffffffffffffffffffffffff1673ffffffffffffffffffffffffffffffffffffffff1603610aa657600060058860ff168154811061065c5761065b612893565b5b906000526020600020018054610671906128f1565b80601f016020809104026020016040519081016040528092919081815260200182805461069d906128f1565b80156106ea5780601f106106bf576101008083540402835291602001916106ea565b820191906000526020600020905b8154815290600101906020018083116106cd57829003601f168201915b50505050509050600060066000600185610704919061283d565b81526020019081526020016000206000018054610720906128f1565b80601f016020809104026020016040519081016040528092919081815260200182805461074c906128f1565b80156107995780601f1061076e57610100808354040283529160200191610799565b820191906000526020600020905b81548152906001019060200180831161077c57829003601f168201915b505050505073__LibExample____________________________63bed34bba9091846040518363ffffffff1660e01b81526004016107d892919061296c565b602060405180830381865af41580156107f5573d6000803e3d6000fd5b505050506040513d601f19601f8201168201806040525081019061081991906129cf565b90506001151581151503610aa3576000600184610836919061283d565b905060006006600083815260200190815260200160002060405180610120016040529081600082018054610869906128f1565b80601f0160208091040260200160405190810160405280929190818152602001828054610895906128f1565b80156108e25780601f106108b7576101008083540402835291602001916108e2565b820191906000526020600020905b8154815290600101906020018083116108c557829003601f168201915b505050505081526020016001820160009054906101000a900473ffffffffffffffffffffffffffffffffffffffff1673ffffffffffffffffffffffffffffffffffffffff1673ffffffffffffffffffffffffffffffffffffffff1681526020016002820160009054906101000a900473ffffffffffffffffffffffffffffffffffffffff1673ffffffffffffffffffffffffffffffffffffffff1673ffffffffffffffffffffffffffffffffffffffff1681526020016003820160009054906101000a900473ffffffffffffffffffffffffffffffffffffffff1673ffffffffffffffffffffffffffffffffffffffff1673ffffffffffffffffffffffffffffffffffffffff1681526020016003820160149054906101000a900460ff161515151581526020016004820160009054906101000a90046fffffffffffffffffffffffffffffffff166fffffffffffffffffffffffffffffffff166fffffffffffffffffffffffffffffffff1681526020016005820154815260200160068201548152602001600782015481525050905080868881518110610a8657610a85612893565b5b6020026020010181905250600187610a9e919061283d565b965050505b50505b8080610ab1906129fc565b9150506105c5565b5080945050505050919050565b60606000610ad46001612065565b90506000610ae26002612065565b82610aed9190612a73565b90506000808267ffffffffffffffff811115610b0c57610b0b612a44565b5b604051908082528060200260200182016040528015610b4557816020015b610b32612089565b815260200190600190039081610b2a5790505b50905060005b84811015610e5857600073ffffffffffffffffffffffffffffffffffffffff1660066000600184610b7c919061283d565b815260200190815260200160002060030160009054906101000a900473ffffffffffffffffffffffffffffffffffffffff1673ffffffffffffffffffffffffffffffffffffffff1603610e45576000600182610bd8919061283d565b905060006006600083815260200190815260200160002060405180610120016040529081600082018054610c0b906128f1565b80601f0160208091040260200160405190810160405280929190818152602001828054610c37906128f1565b8015610c845780601f10610c5957610100808354040283529160200191610c84565b820191906000526020600020905b815481529060010190602001808311610c6757829003601f168201915b505050505081526020016001820160009054906101000a900473ffffffffffffffffffffffffffffffffffffffff1673ffffffffffffffffffffffffffffffffffffffff1673ffffffffffffffffffffffffffffffffffffffff1681526020016002820160009054906101000a900473ffffffffffffffffffffffffffffffffffffffff1673ffffffffffffffffffffffffffffffffffffffff1673ffffffffffffffffffffffffffffffffffffffff1681526020016003820160009054906101000a900473ffffffffffffffffffffffffffffffffffffffff1673ffffffffffffffffffffffffffffffffffffffff1673ffffffffffffffffffffffffffffffffffffffff1681526020016003820160149054906101000a900460ff161515151581526020016004820160009054906101000a90046fffffffffffffffffffffffffffffffff166fffffffffffffffffffffffffffffffff166fffffffffffffffffffffffffffffffff1681526020016005820154815260200160068201548152602001600782015481525050905080848681518110610e2857610e27612893565b5b6020026020010181905250600185610e40919061283d565b945050505b8080610e50906129fc565b915050610b4b565b508094505050505090565b6006602052806000526040600020600091509050806000018054610e86906128f1565b80601f0160208091040260200160405190810160405280929190818152602001828054610eb2906128f1565b8015610eff5780601f10610ed457610100808354040283529160200191610eff565b820191906000526020600020905b815481529060010190602001808311610ee257829003601f168201915b5050505050908060010160009054906101000a900473ffffffffffffffffffffffffffffffffffffffff16908060020160009054906101000a900473ffffffffffffffffffffffffffffffffffffffff16908060030160009054906101000a900473ffffffffffffffffffffffffffffffffffffffff16908060030160149054906101000a900460ff16908060040160009054906101000a90046fffffffffffffffffffffffffffffffff16908060050154908060060154908060070154905089565b60058181548110610fd257600080fd5b906000526020600020016000915090508054610fed906128f1565b80601f0160208091040260200160405190810160405280929190818152602001828054611019906128f1565b80156110665780601f1061103b57610100808354040283529160200191611066565b820191906000526020600020905b81548152906001019060200180831161104957829003601f168201915b505050505081565b6060600061107c6001612065565b905060008060005b83811015611160573373ffffffffffffffffffffffffffffffffffffffff16600660006001846110b4919061283d565b815260200190815260200160002060020160009054906101000a900473ffffffffffffffffffffffffffffffffffffffff1673ffffffffffffffffffffffffffffffffffffffff160361114d576000151560066000600184611116919061283d565b815260200190815260200160002060030160149054906101000a900460ff1615150361114c57600183611149919061283d565b92505b5b8080611158906129fc565b915050611084565b5060008267ffffffffffffffff81111561117d5761117c612a44565b5b6040519080825280602002602001820160405280156111b657816020015b6111a3612089565b81526020019060019003908161119b5790505b50905060005b8481101561151a573373ffffffffffffffffffffffffffffffffffffffff16600660006001846111ec919061283d565b815260200190815260200160002060020160009054906101000a900473ffffffffffffffffffffffffffffffffffffffff1673ffffffffffffffffffffffffffffffffffffffff160361150757600015156006600060018461124e919061283d565b815260200190815260200160002060030160149054906101000a900460ff1615150361150657600060066000600184611287919061283d565b8152602001908152602001600020600701549050600060066000838152602001908152602001600020604051806101200160405290816000820180546112cc906128f1565b80601f01602080910402602001604051908101604052809291908181526020018280546112f8906128f1565b80156113455780601f1061131a57610100808354040283529160200191611345565b820191906000526020600020905b81548152906001019060200180831161132857829003601f168201915b505050505081526020016001820160009054906101000a900473ffffffffffffffffffffffffffffffffffffffff1673ffffffffffffffffffffffffffffffffffffffff1673ffffffffffffffffffffffffffffffffffffffff1681526020016002820160009054906101000a900473ffffffffffffffffffffffffffffffffffffffff1673ffffffffffffffffffffffffffffffffffffffff1673ffffffffffffffffffffffffffffffffffffffff1681526020016003820160009054906101000a900473ffffffffffffffffffffffffffffffffffffffff1673ffffffffffffffffffffffffffffffffffffffff1673ffffffffffffffffffffffffffffffffffffffff1681526020016003820160149054906101000a900460ff161515151581526020016004820160009054906101000a90046fffffffffffffffffffffffffffffffff166fffffffffffffffffffffffffffffffff166fffffffffffffffffffffffffffffffff16815260200160058201548152602001600682015481526020016007820154815250509050808486815181106114e9576114e8612893565b5b6020026020010181905250600185611501919061283d565b945050505b5b8080611512906129fc565b9150506111bc565b508094505050505090565b600047905090565b6000600360009054906101000a900473ffffffffffffffffffffffffffffffffffffffff1673ffffffffffffffffffffffffffffffffffffffff163373ffffffffffffffffffffffffffffffffffffffff16146115bf576040517f08c379a00000000000000000000000000000000000000000000000000000000081526004016115b690612b19565b60405180910390fd5b6115c96001612065565b905090565b600360009054906101000a900473ffffffffffffffffffffffffffffffffffffffff1673ffffffffffffffffffffffffffffffffffffffff163373ffffffffffffffffffffffffffffffffffffffff161461165e576040517f08c379a000000000000000000000000000000000000000000000000000000000815260040161165590612b19565b60405180910390fd5b670de0b6b3a7640000816116729190612b39565b60048190555050565b6002600054036116c0576040517f08c379a00000000000000000000000000000000000000000000000000000000081526004016116b790612bdf565b60405180910390fd5b600260008190555060006006600083815260200190815260200160002060060154905060006006600084815260200190815260200160002060040160009054906101000a90046fffffffffffffffffffffffffffffffff166fffffffffffffffffffffffffffffffff16905081341461176e576040517f08c379a000000000000000000000000000000000000000000000000000000000815260040161176590612c71565b60405180910390fd5b60006006600085815260200190815260200160002060020160009054906101000a900473ffffffffffffffffffffffffffffffffffffffff1673ffffffffffffffffffffffffffffffffffffffff16346040516117ca90612cc2565b60006040518083038185875af1925050503d8060008114611807576040519150601f19603f3d011682016040523d82523d6000602084013e61180c565b606091505b505090506001151581151514611857576040517f08c379a000000000000000000000000000000000000000000000000000000000815260040161184e90612d23565b60405180910390fd5b6000600360009054906101000a900473ffffffffffffffffffffffffffffffffffffffff1673ffffffffffffffffffffffffffffffffffffffff166004546040516118a190612cc2565b60006040518083038185875af1925050503d80600081146118de576040519150601f19603f3d011682016040523d82523d6000602084013e6118e3565b606091505b50509050600115158115151461192e576040517f08c379a000000000000000000000000000000000000000000000000000000000815260040161192590612d8f565b60405180910390fd5b60016006600087815260200190815260200160002060030160146101000a81548160ff021916908315150217905550336006600087815260200190815260200160002060030160006101000a81548173ffffffffffffffffffffffffffffffffffffffff021916908373ffffffffffffffffffffffffffffffffffffffff1602179055508573ffffffffffffffffffffffffffffffffffffffff166323b872dd3033866040518463ffffffff1660e01b81526004016119ef93929190612daf565b600060405180830381600087803b158015611a0957600080fd5b505af1158015611a1d573d6000803e3d6000fd5b50505050611a2b6002612073565b5050505060016000819055505050565b6000600360009054906101000a900473ffffffffffffffffffffffffffffffffffffffff1673ffffffffffffffffffffffffffffffffffffffff163373ffffffffffffffffffffffffffffffffffffffff1614611acd576040517f08c379a0000000000000000000000000000000000000000000000000000000008152600401611ac490612b19565b60405180910390fd5b611ad76002612065565b905090565b600260005403611b21576040517f08c379a0000000000000000000000000000000000000000000000000000000008152600401611b1890612bdf565b60405180910390fd5b600260008190555060008211611b6c576040517f08c379a0000000000000000000000000000000000000000000000000000000008152600401611b6390612e32565b60405180910390fd5b6004543414611bb0576040517f08c379a0000000000000000000000000000000000000000000000000000000008152600401611ba790612ec4565b60405180910390fd5b8373ffffffffffffffffffffffffffffffffffffffff166323b872dd3330866040518463ffffffff1660e01b8152600401611bed93929190612f1f565b600060405180830381600087803b158015611c0757600080fd5b505af1158015611c1b573d6000803e3d6000fd5b50505050611c296001612073565b6000611c356001612065565b905060405180610120016040528060058460ff1681548110611c5a57611c59612893565b5b906000526020600020018054611c6f906128f1565b80601f0160208091040260200160405190810160405280929190818152602001828054611c9b906128f1565b8015611ce85780601f10611cbd57610100808354040283529160200191611ce8565b820191906000526020600020905b815481529060010190602001808311611ccb57829003601f168201915b505050505081526020018673ffffffffffffffffffffffffffffffffffffffff1681526020013373ffffffffffffffffffffffffffffffffffffffff168152602001600073ffffffffffffffffffffffffffffffffffffffff168152602001600015158152602001856fffffffffffffffffffffffffffffffff16815260200142815260200184815260200182815250600660008381526020019081526020016000206000820151816000019081611da091906130f8565b5060208201518160010160006101000a81548173ffffffffffffffffffffffffffffffffffffffff021916908373ffffffffffffffffffffffffffffffffffffffff16021790555060408201518160020160006101000a81548173ffffffffffffffffffffffffffffffffffffffff021916908373ffffffffffffffffffffffffffffffffffffffff16021790555060608201518160030160006101000a81548173ffffffffffffffffffffffffffffffffffffffff021916908373ffffffffffffffffffffffffffffffffffffffff16021790555060808201518160030160146101000a81548160ff02191690831515021790555060a08201518160040160006101000a8154816fffffffffffffffffffffffffffffffff02191690836fffffffffffffffffffffffffffffffff16021790555060c0820151816005015560e08201518160060155610100820151816007015590505080846fffffffffffffffffffffffffffffffff168673ffffffffffffffffffffffffffffffffffffffff167f98e5892a8527b8a3602297e4c21088dbe51f57d048daa82aad0c695a4513e84660058660ff1681548110611f5a57611f59612893565b5b9060005260206000200133600080428b604051611f7c9695949392919061324e565b60405180910390a450600160008190555050505050565b600360009054906101000a900473ffffffffffffffffffffffffffffffffffffffff1673ffffffffffffffffffffffffffffffffffffffff163373ffffffffffffffffffffffffffffffffffffffff1614612023576040517f08c379a000000000000000000000000000000000000000000000000000000000815260040161201a90612b19565b60405180910390fd5b60058282909180600181540180825580915050600190039060005260206000200160009091929091929091929091925091826120609291906132c1565b505050565b600081600001549050919050565b6001816000016000828254019250508190555050565b60405180610120016040528060608152602001600073ffffffffffffffffffffffffffffffffffffffff168152602001600073ffffffffffffffffffffffffffffffffffffffff168152602001600073ffffffffffffffffffffffffffffffffffffffff16815260200160001515815260200160006fffffffffffffffffffffffffffffffff1681526020016000815260200160008152602001600081525090565b600080fd5b600080fd5b600060ff82169050919050565b61214b81612135565b811461215657600080fd5b50565b60008135905061216881612142565b92915050565b6000602082840312156121845761218361212b565b5b600061219284828501612159565b91505092915050565b600081519050919050565b600082825260208201905092915050565b6000819050602082019050919050565b600081519050919050565b600082825260208201905092915050565b60005b838110156122015780820151818401526020810190506121e6565b83811115612210576000848401525b50505050565b6000601f19601f8301169050919050565b6000612232826121c7565b61223c81856121d2565b935061224c8185602086016121e3565b61225581612216565b840191505092915050565b600073ffffffffffffffffffffffffffffffffffffffff82169050919050565b600061228b82612260565b9050919050565b61229b81612280565b82525050565b60006122ac82612260565b9050919050565b6122bc816122a1565b82525050565b60008115159050919050565b6122d7816122c2565b82525050565b60006fffffffffffffffffffffffffffffffff82169050919050565b612302816122dd565b82525050565b6000819050919050565b61231b81612308565b82525050565b600061012083016000830151848203600086015261233f8282612227565b91505060208301516123546020860182612292565b50604083015161236760408601826122b3565b50606083015161237a60608601826122b3565b50608083015161238d60808601826122ce565b5060a08301516123a060a08601826122f9565b5060c08301516123b360c0860182612312565b5060e08301516123c660e0860182612312565b506101008301516123db610100860182612312565b508091505092915050565b60006123f28383612321565b905092915050565b6000602082019050919050565b60006124128261219b565b61241c81856121a6565b93508360208202850161242e856121b7565b8060005b8581101561246a578484038952815161244b85826123e6565b9450612456836123fa565b925060208a01995050600181019050612432565b50829750879550505050505092915050565b600060208201905081810360008301526124968184612407565b905092915050565b6124a781612308565b81146124b257600080fd5b50565b6000813590506124c48161249e565b92915050565b6000602082840312156124e0576124df61212b565b5b60006124ee848285016124b5565b91505092915050565b600082825260208201905092915050565b6000612513826121c7565b61251d81856124f7565b935061252d8185602086016121e3565b61253681612216565b840191505092915050565b61254a81612280565b82525050565b612559816122a1565b82525050565b612568816122c2565b82525050565b612577816122dd565b82525050565b61258681612308565b82525050565b60006101208201905081810360008301526125a7818c612508565b90506125b6602083018b612541565b6125c3604083018a612550565b6125d06060830189612550565b6125dd608083018861255f565b6125ea60a083018761256e565b6125f760c083018661257d565b61260460e083018561257d565b61261261010083018461257d565b9a9950505050505050505050565b6000602082019050818103600083015261263a8184612508565b905092915050565b6000602082019050612657600083018461257d565b92915050565b61266681612280565b811461267157600080fd5b50565b6000813590506126838161265d565b92915050565b600080604083850312156126a05761269f61212b565b5b60006126ae85828601612674565b92505060206126bf858286016124b5565b9150509250929050565b6126d2816122dd565b81146126dd57600080fd5b50565b6000813590506126ef816126c9565b92915050565b6000806000806080858703121561270f5761270e61212b565b5b600061271d87828801612674565b945050602061272e878288016126e0565b935050604061273f878288016124b5565b925050606061275087828801612159565b91505092959194509250565b600080fd5b600080fd5b600080fd5b60008083601f8401126127815761278061275c565b5b8235905067ffffffffffffffff81111561279e5761279d612761565b5b6020830191508360018202830111156127ba576127b9612766565b5b9250929050565b600080602083850312156127d8576127d761212b565b5b600083013567ffffffffffffffff8111156127f6576127f5612130565b5b6128028582860161276b565b92509250509250929050565b7f4e487b7100000000000000000000000000000000000000000000000000000000600052601160045260246000fd5b600061284882612308565b915061285383612308565b9250827fffffffffffffffffffffffffffffffffffffffffffffffffffffffffffffffff038211156128885761288761280e565b5b828201905092915050565b7f4e487b7100000000000000000000000000000000000000000000000000000000600052603260045260246000fd5b7f4e487b7100000000000000000000000000000000000000000000000000000000600052602260045260246000fd5b6000600282049050600182168061290957607f821691505b60208210810361291c5761291b6128c2565b5b50919050565b600082825260208201905092915050565b600061293e826121c7565b6129488185612922565b93506129588185602086016121e3565b61296181612216565b840191505092915050565b600060408201905081810360008301526129868185612933565b9050818103602083015261299a8184612933565b90509392505050565b6129ac816122c2565b81146129b757600080fd5b50565b6000815190506129c9816129a3565b92915050565b6000602082840312156129e5576129e461212b565b5b60006129f3848285016129ba565b91505092915050565b6000612a0782612308565b91507fffffffffffffffffffffffffffffffffffffffffffffffffffffffffffffffff8203612a3957612a3861280e565b5b600182019050919050565b7f4e487b7100000000000000000000000000000000000000000000000000000000600052604160045260246000fd5b6000612a7e82612308565b9150612a8983612308565b925082821015612a9c57612a9b61280e565b5b828203905092915050565b7f596f7520617265206e6f74206f776e6572206f66207468697320636f6e74726160008201527f6374000000000000000000000000000000000000000000000000000000000000602082015250565b6000612b036022836124f7565b9150612b0e82612aa7565b604082019050919050565b60006020820190508181036000830152612b3281612af6565b9050919050565b6000612b4482612308565b9150612b4f83612308565b9250817fffffffffffffffffffffffffffffffffffffffffffffffffffffffffffffffff0483118215151615612b8857612b8761280e565b5b828202905092915050565b7f5265656e7472616e637947756172643a207265656e7472616e742063616c6c00600082015250565b6000612bc9601f836124f7565b9150612bd482612b93565b602082019050919050565b60006020820190508181036000830152612bf881612bbc565b9050919050565b7f506c65617365207375626d6974207468652061736b696e67207072696365206960008201527f6e206f7264657220746f20636f6e74696e756500000000000000000000000000602082015250565b6000612c5b6033836124f7565b9150612c6682612bff565b604082019050919050565b60006020820190508181036000830152612c8a81612c4e565b9050919050565b600081905092915050565b50565b6000612cac600083612c91565b9150612cb782612c9c565b600082019050919050565b6000612ccd82612c9f565b9150819050919050565b7f6661696c6564207472616e736665720000000000000000000000000000000000600082015250565b6000612d0d600f836124f7565b9150612d1882612cd7565b602082019050919050565b60006020820190508181036000830152612d3c81612d00565b9050919050565b7f6661696c6564207472616e736665723200000000000000000000000000000000600082015250565b6000612d796010836124f7565b9150612d8482612d43565b602082019050919050565b60006020820190508181036000830152612da881612d6c565b9050919050565b6000606082019050612dc46000830186612541565b612dd16020830185612541565b612dde604083018461257d565b949350505050565b7f5072696365206d757374206265206174206c65617374206f6e65207765690000600082015250565b6000612e1c601e836124f7565b9150612e2782612de6565b602082019050919050565b60006020820190508181036000830152612e4b81612e0f565b9050919050565b7f76616c7565206d75737420626520657175616c20746f206c697374696e67207060008201527f7269636500000000000000000000000000000000000000000000000000000000602082015250565b6000612eae6024836124f7565b9150612eb982612e52565b604082019050919050565b60006020820190508181036000830152612edd81612ea1565b9050919050565b6000819050919050565b6000612f09612f04612eff846122dd565b612ee4565b612308565b9050919050565b612f1981612eee565b82525050565b6000606082019050612f346000830186612541565b612f416020830185612541565b612f4e6040830184612f10565b949350505050565b60008190508160005260206000209050919050565b60006020601f8301049050919050565b600082821b905092915050565b600060088302612fb87fffffffffffffffffffffffffffffffffffffffffffffffffffffffffffffffff82612f7b565b612fc28683612f7b565b95508019841693508086168417925050509392505050565b6000612ff5612ff0612feb84612308565b612ee4565b612308565b9050919050565b6000819050919050565b61300f83612fda565b61302361301b82612ffc565b848454612f88565b825550505050565b600090565b61303861302b565b613043818484613006565b505050565b5b818110156130675761305c600082613030565b600181019050613049565b5050565b601f8211156130ac5761307d81612f56565b61308684612f6b565b81016020851015613095578190505b6130a96130a185612f6b565b830182613048565b50505b505050565b600082821c905092915050565b60006130cf600019846008026130b1565b1980831691505092915050565b60006130e883836130be565b9150826002028217905092915050565b613101826121c7565b67ffffffffffffffff81111561311a57613119612a44565b5b61312482546128f1565b61312f82828561306b565b600060209050601f8311600181146131625760008415613150578287015190505b61315a85826130dc565b8655506131c2565b601f19841661317086612f56565b60005b8281101561319857848901518255600182019150602085019450602081019050613173565b868310156131b557848901516131b1601f8916826130be565b8355505b6001600288020188555050505b505050505050565b600081546131d7816128f1565b6131e181866124f7565b945060018216600081146131fc576001811461321257613245565b60ff198316865281151560200286019350613245565b61321b85612f56565b60005b8381101561323d5781548189015260018201915060208101905061321e565b808801955050505b50505092915050565b600060c082019050818103600083015261326881896131ca565b90506132776020830188612550565b6132846040830187612550565b613291606083018661255f565b61329e608083018561257d565b6132ab60a083018461257d565b979650505050505050565b600082905092915050565b6132cb83836132b6565b67ffffffffffffffff8111156132e4576132e3612a44565b5b6132ee82546128f1565b6132f982828561306b565b6000601f8311600181146133285760008415613316578287013590505b61332085826130dc565b865550613388565b601f19841661333686612f56565b60005b8281101561335e57848901358255600182019150602085019450602081019050613339565b8683101561337b5784890135613377601f8916826130be565b8355505b6001600288020188555050505b5050505050505056fea26469706673582212205d56ae6d8df2a07a4045d6042e49ad5151d2c9f966fc4a7ac7967529f53091e264736f6c634300080f0033",
    "immutableReferences": {},
    "source": "// SPDX-License-Identifier: MIT\npragma solidity >=0.8.0;\n\nimport \"@openzeppelin/contracts/token/ERC721/ERC721.sol\";\nimport \"@openzeppelin/contracts/security/ReentrancyGuard.sol\";\nimport \"@openzeppelin/contracts/utils/Counters.sol\";\nimport \"../lib/CompareStrings.sol\";\n\ncontract MarketPlace is ReentrancyGuard {\n    using Counters for Counters.Counter;\n    using LibExample for string;\n    struct EachMarketItem {\n        string nftType;\n        address nftContract;\n        address payable seller;\n        address payable owner;\n        bool sold;\n        uint128 tokenId;\n        uint256 createdAt;\n        uint256 price;\n        uint256 itemId;\n    }\n\n    Counters.Counter internal _tokenIds;\n    Counters.Counter internal _tokensSold;\n    address internal owner;\n    uint256 internal listingPrice;\n    string[] public nftTypes;\n    mapping(uint256 => EachMarketItem) public marketPlaceItems;\n\n    event EachMarketItemMinted(\n        string nftType,\n        address indexed nftContract,\n        address payable seller,\n        address payable owner,\n        bool sold,\n        uint128 indexed tokenId,\n        uint256 createdAt,\n        uint256 price,\n        uint256 indexed itemId\n    );\n\n    constructor() {\n        owner = msg.sender;\n        listingPrice = 0.045 ether;\n        nftTypes = [\"music\", \"paint\", \"sport\"];\n    }\n\n    modifier onlyOwner() {\n        // solhint-disable-next-line\n        require(msg.sender == owner, \"You are not owner of this contract\");\n        _;\n    }\n\n    function addMarketItem(\n        address _nftContract,\n        uint128 _tokenId,\n        uint256 _price,\n        uint8 _nftType\n    ) external payable nonReentrant {\n        require(_price > 0, \"Price must be at least one wei\");\n        // solhint-disable-next-line\n        require(\n            msg.value == listingPrice,\n            \"value must be equal to listing price\"\n        );\n\n        IERC721(_nftContract).transferFrom(msg.sender, address(this), _tokenId);\n        _tokenIds.increment();\n        uint256 currentItemId = _tokenIds.current();\n        marketPlaceItems[currentItemId] = EachMarketItem(\n            nftTypes[_nftType],\n            _nftContract,\n            payable(msg.sender),\n            payable(address(0)),\n            false,\n            _tokenId,\n            block.timestamp,\n            _price,\n            currentItemId\n        );\n\n        emit EachMarketItemMinted(\n            nftTypes[_nftType],\n            _nftContract,\n            payable(msg.sender),\n            payable(address(0)),\n            false,\n            _tokenId,\n            block.timestamp,\n            _price,\n            currentItemId\n        );\n    }\n\n    function sellMarketItem(address _nftContract, uint256 _itemId)\n        external\n        payable\n        nonReentrant\n    {\n        uint256 price = marketPlaceItems[_itemId].price;\n        uint256 tokenId = marketPlaceItems[_itemId].tokenId;\n        // solhint-disable-next-line\n        require(\n            msg.value == price,\n            \"Please submit the asking price in order to continue\"\n        );\n        (bool success, ) = marketPlaceItems[_itemId].seller.call{\n            value: msg.value\n        }(\"\");\n        require(success == true, \"failed transfer\");\n        (bool success1, ) = payable(owner).call{value: listingPrice}(\"\");\n        require(success1 == true, \"failed transfer2\");\n        marketPlaceItems[_itemId].sold = true;\n        marketPlaceItems[_itemId].owner = payable(msg.sender);\n        IERC721(_nftContract).transferFrom(address(this), msg.sender, tokenId);\n        _tokensSold.increment();\n    }\n\n    function contractBalance() public view returns (uint256) {\n        return address(this).balance;\n    }\n\n    function explore() public view returns (EachMarketItem[] memory) {\n        uint256 itemCount = _tokenIds.current();\n        uint256 unsoldItemCount = itemCount - _tokensSold.current();\n        uint256 currentIndex = 0;\n        EachMarketItem[] memory items = new EachMarketItem[](unsoldItemCount);\n        for (uint256 i = 0; i < itemCount; i++) {\n            if (marketPlaceItems[i + 1].owner == address(0)) {\n                uint256 currentId = i + 1;\n                EachMarketItem memory currentItem = marketPlaceItems[currentId];\n                items[currentIndex] = currentItem;\n                currentIndex += 1;\n            }\n        }\n        return items;\n    }\n\n    function exploreType(uint8 _nftType)\n        public\n        view\n        returns (EachMarketItem[] memory)\n    {\n        uint256 itemCount = _tokenIds.current();\n        uint256 itemCount2 = 0;\n        for (uint256 i = 0; i < itemCount; i++) {\n            if (marketPlaceItems[i + 1].owner == address(0)) {\n                string memory nftType = nftTypes[_nftType];\n                bool result = marketPlaceItems[i+1].nftType.compareStrings(nftType);\n                if (\n                    result == true\n                ) {\n                    itemCount2 += 1;\n                }\n            }\n        }\n\n        uint256 currentIndex = 0;\n        EachMarketItem[] memory items = new EachMarketItem[](itemCount2);\n        for (uint256 i = 0; i < itemCount; i++) {\n            if (marketPlaceItems[i + 1].owner == address(0)) {\n                string memory nftType = nftTypes[_nftType];\n                bool result = marketPlaceItems[i+1].nftType.compareStrings(nftType);\n                if (\n                    result == true\n                ) {\n                    uint256 currentId = i + 1;\n                    EachMarketItem memory currentItem = marketPlaceItems[\n                        currentId\n                    ];\n                    items[currentIndex] = currentItem;\n                    currentIndex += 1;\n                }\n            }\n        }\n        return items;\n    }\n\n    function mySellingNFTS() public view returns (EachMarketItem[] memory) {\n        uint256 itemCount = _tokenIds.current();\n        uint256 itemCount2 = 0;\n        uint256 currentIndex = 0;\n        for (uint256 i = 0; i < itemCount; i++) {\n            if (marketPlaceItems[i + 1].seller == msg.sender) {\n                if (marketPlaceItems[i + 1].sold == false) {\n                    itemCount2 += 1;\n                }\n            }\n        }\n\n        EachMarketItem[] memory items = new EachMarketItem[](itemCount2);\n        for (uint256 i = 0; i < itemCount; i++) {\n            if (marketPlaceItems[i + 1].seller == msg.sender) {\n                if (marketPlaceItems[i + 1].sold == false) {\n                    uint256 currentId = marketPlaceItems[i + 1].itemId;\n                    EachMarketItem memory currentItem = marketPlaceItems[\n                        currentId\n                    ];\n                    items[currentIndex] = currentItem;\n                    currentIndex += 1;\n                }\n            }\n        }\n        return items;\n    }\n\n\n    function addNFTType(string calldata _newType) external onlyOwner {\n        nftTypes.push(_newType);\n    }\n\n    function updateListingPrice(uint256 _newListinPrice) external onlyOwner {\n        listingPrice = _newListinPrice * 10 **18;\n    }\n\n    function getNFTsCount() external view onlyOwner returns(uint256) {\n        return _tokenIds.current();\n    }\n\n    function getSoldNFTsCount() external view onlyOwner returns(uint256) {\n        return _tokensSold.current();\n    }\n    \n}\n",
    "sourcePath": "/Users/istore/Desktop/voomio-contracts/contracts/MarketPlace.sol",
    "compiler": {
        "name": "solc",
        "version": "0.8.15+commit.e14f2714.Emscripten.clang"
    },
    "schemaVersion": "3.4.3",
    "updatedAt": "2022-07-19T09:55:08.843Z",
    "devdoc": {
        "kind": "dev",
        "methods": {},
        "version": 1
    },
    "userdoc": {
        "kind": "user",
        "methods": {},
        "version": 1
    }
}